:100000000A128A11FC2F00308A000408840A820731
:100010000034493453342034443445345434453462
:10002000433454344534443400344D344F3456341E
:0C00300045344D3445344E345434003413
:100E9000F2007208831203138700081088100815E7
:100EA0002130F1007630F000F00B542FF10B542F6D
:100EB00000008312031308110800F2007208831265
:100EC000031387000814881008152130F1007630CC
:100ED000F000F00B692FF10B692F00008312031350
:100EE0000811080038300A128A1148270A128A119C
:100EF00006300A128A1148270A128A110C300A1287
:100F00008A1148270A128A1101300A128A114827C9
:100F10000A128A110800F500F6019F2F760875075E
:100F200084000A128A1103200A128A110A128A11F5
:100F30005D270A128A110130F4007408F60773085D
:100F40007602031CA42FA52F8E2F080083160313EF
:100F50000611861188178312031386018316031363
:100F600087010810881008110A128A1172270A12C4
:100F70008A1183120313881FBE2FBF2FB92F0615A6
:100F8000861583300A128A1148270A128A110830FE
:100F9000F7007708F3000D300A128A118B270A1226
:100FA0008A11C3300A128A1148270A128A110B309B
:100FB000F7007708F30001300A128A118B270A1212
:100FC0008A110D30F900AF30F800B630F700F70B9A
:100FD000E72FF80BE72FF90BE72F0000831203131D
:100FE0000611861101300A128A1148270A128A1145
:100FF000B92F0A128A11002883010A128A11A62F1A
:00000001FF
