:100000000A128A11FC2F00308A000408840A820731
:100010000034493453342034443445345434453462
:10002000433454344534443400344D344F3456341E
:0C00300045344D3445344E345434003413
:100E8000F3007308831203138700081088100815F5
:100E90000D30F200AF30F100B630F000F00B4E2F05
:100EA000F10B4E2FF20B4E2F00008312031308118B
:100EB000080038300A128A1140270A128A110630B7
:100EC0000A128A1140270A128A110C300A128A115A
:100ED00040270A128A1101300A128A1140270A1289
:100EE0008A110800F30073088312031387000814A3
:100EF000881008150D30F200AF30F100B630F00068
:100F0000F00B802FF10B802FF20B802F000083124B
:100F1000031308110800F600F7019F2F77087607E2
:100F200084000A128A1103200A128A110A128A11F5
:100F300072270A128A110130F5007508F707740844
:100F40007702031CA42FA52F8E2F080083160313EE
:100F50000611861188178312031386018316031363
:100F600087010810881008110A128A1159270A12DD
:100F70008A1183120313881FBE2FBF2FB92F0615A6
:100F8000861583300A128A1140270A128A11083006
:100F9000F8007808F4000D300A128A118B270A1223
:100FA0008A11C3300A128A1140270A128A110B30A3
:100FB000F8007808F40001300A128A118B270A120F
:100FC0008A110230FA004530F900A930F800F80B18
:100FD000E72FF90BE72FFA0BE72FEE2F83120313FE
:100FE0000611861101300A128A1140270A128A114D
:100FF000B92F0A128A11002883010A128A11A62F1A
:00000001FF
